S0140000736166656261747465727930312E733337E5
S113000000800020B52D0000E12D0000E12D00004E
S1130010E12D0000E12D0000E12D0000E12D0000A4
S1130020E12D0000E12D0000E12D0000E12D000094
S1130030E12D0000E02D0000E12D0000E12D000085
S1130040E12D0000E12D0000E12D0000E12D000074
S1130050E12D0000192D0000E12D0000E12D00002C
S1130060E12D0000E12D0000E12D0000E12D000054
S1130070512D0000E12D0000E12D0000E12D0000D4
S1130080E12D0000E12D0000E12D0000E12D000034
S1130090E12D0000E12D0000E12D0000E12D000024
S11300A0E12D0000E12D0000E12D0000E12D000014
S11300B0E12D0000E12D0000E12D00000D210000E4
S11300C010B5064C2378002B07D1054B002B02D02A
S11300D0044800E000BF0123237010BDA8000020E5
S11300E00000000048650000044B10B5002B03D04D
S11300F00349044800E000BF10BDC04600000000F2
S1130100AC00002048650000164B002B00D1144BB6
S11301109D46402292029A1A924600218B460F462F
S11301201348144A121A05F068FF0F4B002B00D035
S113013098470E4B002B00D0984700200021040064
S11301400D000D48002802D00C4800E000BF05F067
S113015027FF2000290000F013F805F00BFFC0462C
S113016000000800008000200000000000000000E3
S1130170A800002078020020000000000000000019
S113018010B58023DB0501225A6402F097FB02F0CC
S1130190D7FB02F0B7FB02F009FE002002F002F8E0
S11301A002F0E4FA012304220B21022001F0BCFB3B
S11301B0012304220D21022001F0B6FB02F030FAE3
S11301C00A4802F039FC01E002F022FA02F084FD50
S11301D0074B1B78DBB2012BF6D0022B03D0044B68
S11301E000221A70F2E702F00BFAEFE72801002070
S11301F06B02002070B5002A07D010253A4B446BDF
S11302001C403A4B984203D070BD0025384BF6E7AA
S1130210022930D007D906294ED0812955D0032987
S113022037D0002323E0002914D00129F9D1314A21
S113023013681B0E1B02FE21C9010B401668360C05
S11302400F2131400B431268120D1201FF210A40A5
S113025013430CE0274A1368FE21C9010B401668BA
S11302600F2131400B431168F0220A401343AB4085
S113027023434363C8E7204A1368FE21C9010B40A6
S113028016680F2131400B431168F0220A401343D2
S1130290EDE719490A68120E1202FE23DB011A4027
S11302A00E68360C0F2333401A430B681B0D1B01D9
S11302B0FF210B401343DAE710490B680F221A4061
S11302C00968F0230B401343D1E70B490A68FE2366
S11302D0DB011A400E680F2333401A430968F023E8
S11302E00B401343C3E7C046FFFF008000200840D3
S11302F00080FFFF1082E00F1482E00F1882E00FED
S113030070B505000C000223836089780022FFF792
S113031071FF6078030621790A021343627912049B
S11303201343E278D2001343E279002A02D08022F8
S113033092051343227A002A01D004221343A2799E
S1130340002A01D002221343627A002A01D001223A
S11303501343F3291FD0A27851B2002926DB52019E
S113036013432B616B69154A1A40A37859B20029CB
S11303701FDB23785B041343E27A002A02D0802235
S1130380D20113436B61A27A2B6804218B43920040
S113039013432B6070BDA278002ADCD10328DAD87D
S11303A0074A13408022D2041343D4E7E0221343C4
S11303B0D7E780218B431A43DBE7C046F8BFF1FF40
S11303C0FFFFFFF010B504000E4B984205D80E4B0A
S11303D0984203D8FA24E40100E00A4C00290CD026
S11303E06118481E210002F0BFFF002800D0013828
S11303F07F2800D97F20C0B210BD044800F066FDFC
S11304000100EDE70024F400FF7C000060410900D6
S113041070B505000E00CC78002C27D003681B06AD
S11304202AD50A23AB6030780006B3781B04FE2279
S1130430D203134018432402FE23DB011C40204353
S1130440737818433379002B01D0102318432860A4
S11304507279C0218023DB04EB181960C023DB040C
S1130460EB181A602B681B0610D470BD00210C48D1
S1130470FFF7A8FF0400D4E700210948FFF7A2FF13
S1130480FA200021C001FFF79DFFCAE7054800F0EC
S11304901DFD054B9D42E8D1044800F017FDE4E73B
S11304A00024F400B80032000020084000B2080024
S11304B010B504000A238360114B036100234361D8
S11304C08361C361F8225203026043640D4A0264EB
S11304D00363036243620C4B83628C23C258012181
S11304E00A43C250902283580B43835000220021B8
S11304F0FFF780FE012200212000FFF77BFE10BDE4
S113050000FFFF00000F033FE439000010B500288E
S113051008D0084B9C466044074902F025FF013887
S1130520C0B210BD054800F0D1FC0028F1D1013063
S1130530EFE7C0463F420F0040420F006041090010
S113054010B5054B984201D0002010BD034800F0BF
S1130550BDFC4008F9E7C04600400040003E0400EE
S1130560002902D100230365704792001B02134344
S1130570012213430365F7E7F8B5CE46474680B535
S11305800500884608A90F8809A90C889E18B9197E
S11305904B1C9946FFF7D4FF41464B46594302F0A2
S11305A0E3FE0138830998463F22104029682A68EF
S11305B041231A432A60013CA4010443013E36024C
S11305C03443013F3F033C43EC604346AB61CB07FC
S11305D007D52B68402293432B600CBC9046994668
S11305E0F8BD2B68412293432B60F6E704290ED80B
S11305F08900114B5B589F460368802213430360B4
S1130600002343610368934303600E230360704730
S11306108E2303608A3B4361F9E78E2303607E3BAC
S11306204361F4E78E230360763B4361EFE78E2357
S11306300360863B4361EAE72860000010B5836FDE
S11306401B04FCD49823C3581B04FBD40368012265
S11306509343134303600023436001684024214310
S113066001601649C1600168A1430160016840341A
S11306702143016043610168A14301608361C36256
S11306804363836301214942C16343648364C26455
S1130690036500220FE0D31C5B0100211950C3182D
S11306A0074C5C605301C3189966D966196759678A
S11306B0013199670132012AEDDD10BD01230000EB
S11306C0FFFFFFDFF0B583B005000C001600082221
S11306D00021684605F091FC317A082900DD0821E3
S11306E02000002304E0F218527A6F46FA540133D2
S11306F08B42F8D34301EB189B6F1B04FAD46B466F
S11307001B786A46527812021A436B469B781B0484
S11307101A436B46DB781B06134364012D192B67C0
S11307206B461B796A46527912021A436B469B79CF
S11307301B041A436B46DB791B0613436B6703B038
S1130740F0BD30B50D006C010419A46F2404FAD473
S1130750490141188A67002B04D06B01C3189B6FB1
S11307601B04FAD430BD0000F0B5D6464F464646C9
S1130770C0B504000D0091461E0008AB1B789846D6
S11307800A005301E3189B6F1B04FAD4EF1C7F018A
S113079030233B5132782F3B29002000FFF7D1FF53
S11307A03B59802213433B516B019A46A244534662
S11307B09B6E5B005B0852469366327801232900E6
S11307C02000FFF7BEFF3B59402213433B515346E1
S11307D0DB6E254A13404A4617031F435346DF6620
S11307E07378002B2AD05246936E5B0F5B077168B7
S11307F01943C0231B060B439366337E002B2AD177
S113080073699A04194B1A40EB1C5B01E3185A6094
S1130810EB1C5B01E3185968327ED207707E8007B7
S113082002430A435A603278434629002000FFF706
S113083088FF1CBC90469946A246F0BD6A01A218E6
S1130840936E5B0F5B07716889040B438021090673
S11308500B439366D1E77369DA00D208EB1C5B01A2
S1130860E3185A60D4E7C046FFEFFFFF0000FC1F07
S1130870F0B5DE4657464E464546E0B583B0040023
S11308800D0001929A460CAB1B7899460DAB1E786D
S11308900EAB1B7898460FAB1B789B460A0053019E
S11308A0E3189B6F1B04FAD4EF1C7F0130233B51E8
S11308B02F3B019A29002000FFF743FF3B59802278
S11308C013433B516A01A218936E0F490B405146E2
S11308D0C9070B43494649070B4393664346DB016B
S11308E076021E43C0231B011E43D6665B46019A53
S11308F029002000FFF725FF03B03CBC9046994631
S1130900A246AB46F0BDC046FFFFFF5FF0B5C6464A
S113091000B582B004000E00170001930A005301D1
S1130920E3189B6F1B04FAD407223A4BE3181A60AE
S1130930394BE3181A60F31C5B0198463023424696
S113094013513A782F3B31002000FFF7FAFE43465B
S11309501B59802213434246135175016519AB6E2E
S11309605B005B08AB663A78012331002000FFF797
S1130970E8FE43461B590322134342461351EB6ED0
S11309809B0502D5AB6E9B0010D47301E318D96E9E
S1130990802252000A43DA66DB6E9B0506D473019B
S11309A0E318D96E802212020A43DA667201A21891
S11309B0D36E0F218B43397A0B43D3667B78002B9C
S11309C01BD17201A218936E802189050B407968AE
S11309D089040B43802109060B4393663A003100D6
S11309E02000FFF76FFE3A78019B31002000FFF7EB
S11309F0A8FE02B004BC9046F0BD7201A218936E2A
S1130A005B0F5B0779681943C0231B060B4393668E
S1130A10E4E7C0460400000404000006F8B504003E
S1130A200E0015000A005301E3189B6F1B04FAD44F
S1130A30F31C5B017F221A512A7801233100200024
S1130A40FFF77FFE7301E318DB6E1B0438D57301D7
S1130A50E318DB6E0F2213402B726A78002A0AD047
S1130A607201A218926ED200D2086A607201A218B2
S1130A70116F00220DE07201A218926E920C5205C1
S1130A80520D6A60F2E7BA4209D2A8184172090A03
S1130A90013218001F00042BF5D90427F3E7032BB8
S1130AA010D97601A419616F002304E01A1DAA1855
S1130AB05172090A0133021F9A42F7D8012000E05B
S1130AC00020F8BD0120FCE770B505000E000A0007
S1130AD05301EB189B6F1B04FAD4F31C5B01F32244
S1130AE05A51EB180A4A5A607301EB1800229A66AD
S1130AF0DA661A675A67012406E0E2B2012331007C
S1130B002800FFF71EFE0134202CF6DD70BDC04620
S1130B10FFFFFFDF10B50F4B984208D90E4B9842E8
S1130B2002D90220012304E00120012301E0002076
S1130B3000230A490A680A4C22401B041A430A602B
S1130B40802464000B59074A1340000603430B51E9
S1130B5010BDC0460048E8010090D00300400E409C
S1130B60FFFFFEFFFFFFFFFC014B18687047C04604
S1130B700000002010B58023DB055B68002300E043
S1130B800133042B0BD8DC000D4A12191479CAB2B4
S1130B909442F5D1DA000A4C12598242F0D3052B63
S1130BA00CD0DB00064AD3185A7912068021C905F5
S1130BB04B680448034013434B6010BD0322F4E721
S1130BC088610000FFFFFFFC10B502F00FF9054A31
S1130BD080235B00D258120AE13B1340013358438F
S1130BE010BDC04600400E4010B58023DB051C6CD0
S1130BF0064A1A6402F0F6F80021FFF7BBFF002C46
S1130C0003D08023DB0500221A6410BD711B000091
S1130C1010B58023DB051C6C054A1A64FFF7AAFF94
S1130C20002C03D08023DB0500221A6410BDC046CB
S1130C30711B000030B5020A0F2313400E2B33D86A
S1130C409B001A4AD3589F460023194C14E00023F2
S1130C50184C11E00023184C0EE00123174C0BE054
S1130C601023174C08E080235B02164C04E0002399
S1130C70154C01E00023154C000B1F221040002BE3
S1130C800BD00B4D2632FF32AA58D20705D4084D9B
S1130C90A0225200AA581A42F9D1236801228240A4
S1130CA0934381401943216030BDC0463C6000003D
S1130CB000400E40C0400E40C4400E40E0400E4094
S1130CC0E8400E40F0400E4050410E40B0400E400F
S1130CD00F23184008286CD880003D4B1B589F46B2
S1130CE03C4A9423D2588D3B13409B003A4AD35834
S1130CF09F4602205EE004205CE00B205AE00C20BA
S1130D0058E0052056E0334A8023D258793B1340FB
S1130D10022B52D0042B05D0012B01D0012049E035
S1130D20032047E00A2045E02A4A8423D2587D3B29
S1130D301340022B43D005D9032B07D0042B07D132
S1130D400A2037E0012B03D1032033E0062031E0F1
S1130D5001202FE01F4A8823D258813B1340022BE5
S1130D602FD0042B05D0012B01D0012022E0032039
S1130D7020E00A201EE0174B1A6F0323134022D0F1
S1130D80012B01D1092015E0012013E0114AAE2303
S1130D905B00D2582D3BFF3B1340202B05D0302B5A
S1130DA005D0102B11D0012004E0042002E008201B
S1130DB000E0002070470320FCE70220FAE702204D
S1130DC0F8E70220F6E70720F4E70720F2E7C04639
S1130DD07860000000400E409C60000010B50400E4
S1130DE0FFF776FF1E4B9C4215D01E4B9C4218D039
S1130DF01D4B9C4209D002281ED018D903281ED0AE
S1130E0004282BD102F041F815E0184A8023D35866
S1130E1007201840EFE7154A8423D35807201840C9
S1130E20E9E7124A8823D35807201840E3E701284A
S1130E3014D102F027F810BD02F02AF8FBE701F004
S1130E40FFFF0A4A80235B00D258120EFD3B134079
S1130E5001330121994002F087FAECE70020EAE728
S1130E60030020000500240002001E0000400E4084
S1130E7010B50748FFF72CFF072804D0092805D12F
S1130E8001F0B4FF10BDFFF76FFEFBE70020F9E7A8
S1130E9006000E0010B5041E01D0002010BD0A4843
S1130EA0FFF716FF072805D0082809D0042804D026
S1130EB02000F3E7FFF758FEF0E701F0D5FFEDE778
S1130EC0FFF782FEEAE7C046B800320010B5F82307
S1130ED09B03184080235B03984200D108E118D992
S1130EE080239B03984200D1DDE058D8B0235B03F4
S1130EF0984200D1BBE042D9D0235B03984200D191
S1130F00D5E0F0235B03984226D17B48FFF766FFC8
S1130F106BE0C023DB02984200D174E011D9A02316
S1130F201B03984200D17BE018D9C0231B039842CD
S1130F3000D18FE0E0231B0398420DD1FFF798FF07
S1130F4053E080239B02984200D176E08023DB02A9
S1130F5098424BD0002846D0002046E080231B0353
S1130F609842F9D101F042FF644A8E235B00D158C4
S1130F70090AC905C90D013102F0F6F935E0A023CB
S1130F805B039842E8D15E48FFF728FF5B4A982349
S1130F905B00D2582E3BFF3B1340D84025E0B823DA
S1130FA09B03984200D172E015D9C0239B03984259
S1130FB000D18CE0C8239B039842CDD10020FFF7D9
S1130FC069FF4E4AAE235B00D35803211940013117
S1130FD002F0CAF909E090239B039842BCD1484827
S1130FE0FFF7FCFE01E001F001FF10BD01F0FEFE81
S1130FF0424A86235B00D158090AC905C90D01314B
S113100002F0B2F9F1E701F0F1FE3C4A8C235B00F7
S1131010D158090AC905C90D013102F0A5F9E4E75F
S113102001F0E4FE354A82235B00D158090AC90560
S1131030C90D013102F098F9D7E701F0D7FE2F4A24
S113104084235B00D158090AC905C90D013102F096
S11310508BF9CAE701F0CAFE284A8A235B00D358F9
S11310601B0A1F211940013102F07EF9BDE7224815
S1131070FFF7B4FE214A90235B00D2581209123BB9
S1131080FF3B13400121994002F06EF9ADE71A4885
S1131090FFF7A4FE194A90235B00D2581E3BFF3B86
S11310A01340D840A1E71748FFF798FE9DE715487D
S11310B0FFF794FE114A94235B00D2581209263B91
S11310C0FF3B13400121994002F04EF98DE70D4892
S11310D0FFF784FE094A94235B00D258120A263B88
S11310E0FF3B134004330121994002F03DF97CE7B2
S11310F0FFF73AFD79E7C04602001E0000400E40AB
S1131100050024000300200010B50C0002090F2381
S113111013400C2B27D89B009C4AD3589F46FFF7BB
S113112063FD9B48FFF7F6FC00F04EF999498022D5
S113113052008B589848034024021C438C5001F001
S11311407FFE964B1B685B03FBD4954B5B681B0CC3
S113115003211940FFF75CFD9248FFF7B7FEFFF744
S1131160D9FC00F045F910BD8A498A2252008B58F7
S11311708948034024021C438C50F4E785498622A5
S113118052008B588848034024021C438C50EAE7E1
S113119080498C2252008B588348034024021C430C
S11311A08C50E0E77B498E2252008B587E480340E6
S11311B024021C438C50D6E7FFF716FD7448FFF752
S11311C0A9FC7449842252008B58774803402402B6
S11311D01C438C5001F034FE704B1B685B03FBD442
S11311E06F4B5B681B0C03211940FFF711FD6D4821
S11311F0FFF76CFEFFF78EFCB5E76C4B98421AD0F4
S11312006B4B984234D06B4B9842ACD1614AA223C9
S11312105B00D358DB0705D45E4AA0235B00D35898
S11312205B03F9D45B4A98235B00D05803218843BD
S11312302043D05097E7481C02F09AF9FF2101405F
S11312401F22511A534AA2235B00D358DB0705D44B
S1131250504AA0235B00D3585B07F9D44D4C90202F
S113126040002358F022934309010B4323507AE7AB
S1131270481C02F07DF9FF2101401F23591A454AF9
S11312802633FF33D358DB0705D4424AA0235B003F
S1131290D3585B07F9D43F48902252008358032463
S11312A0A3430B4383505EE7434B984220D0434B08
S11312B0984200D057E7481C02F05AF9FF21014038
S11312C01B22511A334AA2235B00D358DB0705D4EF
S11312D0304AA0235B00D3585B06F9D42D4C9420EC
S11312E040002358364A134009020B4323503AE77F
S11312F0481C02F03DF9FF2101401F22511A254AE2
S1131300A2235B00D358DB0705D4224AA0235B0049
S1131310D3585B06F9D41F4C942040002358302244
S1131320934309010B4323501DE7224B984200D0FD
S113133019E7184AA2235B00D358DB0705D4154AE2
S1131340A0235B00D3585B03F9D4124A98235B00B3
S1131350D058032188432043D05004E7194B9842C6
S113136000D000E70B4AAE235B00D058032188432A
S11313702043D050F7E607498222520088580A4B8E
S11313800340200218438850EDE6C046BC600000CC
S11313900148E80100400E40FFE0FFFF04300E402A
S11313A000300E4000050A00FF00FEFF8016160004
S11313B080062E00A009140090171A009027300010
S11313C0FFFCFFFFB800320010B503210548FFF70A
S11313D09BFE03210448FFF797FE03210348FFF710
S11313E093FE10BD404105005041070060410900D3
S11313F070B501F0FBFC04001D4B1B685B03FBD4C0
S11314001C4B5A68120C03231340022B1BD01A499D
S11314101A4BE01801F0A8FF051E00D0013D290079
S11314201748FFF771FE29001648FFF76DFE164BAB
S1131430E018164901F098FF011E00D00139144844
S1131440FFF762FE70BD134BE018134901F08CFFE7
S1131450041E00D0013C21000948FFF755FE21007D
S11314600B48FFF751FE21000648FFF74DFEE9E760
S113147004300E4000300E4080F0FA027FF0FA0291
S11314804041050060410900FFA14A0400A24A044A
S113149050410700FF2C3101002D3101014B186828
S11314A07047C0463000002003280AD004280DD01D
S11314B0012801D0002003E0074B186AC005C00DC5
S11314C07047054B1B697F201840F9E7024B9B6965
S11314D07F201840F4E7C04600400E40032811D096
S11314E004281CD0012800D07047C905C90D124B2F
S11314F01B685B01FBD4114A136A5B0A5B02194344
S11315001162F1E77F220A400B4B1B68DB01FBD41D
S11315100A4B19697F20814311431961E4E77F2253
S11315200A40054B1B689B01FBD4044B99697F203F
S1131530814311439961D7E740410E4000400E407A
S11315400B4B5A6A120903231340012B04D00029C0
S11315500CD18022D20301E08022D20304499023DB
S1131560CB5813409342F9D101207047014AF5E763
S113157000400E40FF33413AF0B5C64600B504289A
S113158000D980E08300414CE3589F4602230126A2
S11315900024012514E020231026042405250FE04F
S11315A080234026062407250AE080239B0080260A
S11315B076000824092503E00823042602240325D1
S11315C000294ED002282DD00021314B1E66314B0C
S11315D01B68E340DB07FAD5002A54D02D4B1B6867
S11315E0EB40DB07FAD502284DD100294BD0284B1C
S11315F05A6A03231340032B2FD10220FFF754FF11
S11316000400012200210220FFF7B6FF210002207E
S1131610FFF764FF1E4B1E661E4B1B68EB40DB0787
S1131620FAD530E01A4B5F6A3F0903233B40012B94
S113163001D00021C9E7184BDB6B154B5F6A03230C
S11316403B40032BC1D1124B98465B6A3027BB4306
S1131650103F3B4347467B62B7E70021FFF770FF2B
S1131660CBE70B490B660A499023C9588F3BA3402B
S11316700B42F8D1002A06D0054A9023D2588F3B5A
S1131680AB401342F8D104BC9046F0BDF0600000BA
S113169000400E4090400E4000300E4070B50500F2
S11316A00C00112809D000260F202840082800D952
S11316B08CE080005E4B1B589F46042903D005290B
S11316C00BD00026F0E701F0CFFB0600002EEBD094
S11316D00021300000F000F9E6E7FFF7DFFE060026
S11316E0544B9842F2D80026DEE7534D4AE00C2CC6
S11316F06CD8A400514B1B599F460020042410E0D1
S11317004F48FFF707FA022002240AE04C48FFF78B
S113171001FA0320012404E00120032401E0032052
S1131720052401220121FFF727FFFFF75DFAFFF7E8
S11317304BFE002E03D0434B1B685B03FBD4424B90
S11317405C674248FFF7C2FBFFF7E4F901F078FB5E
S11317503C4B1B685B03FBD43D4B5B681B0C0321B8
S11317601940FFF755FA002E04D0FFF741FE2DE093
S11317700724DAE70121002000F0AEF8F5E7354D43
S113178000E0354D0A2C21D8A400344B1B599F4648
S113179000231AE0012201210020FFF7EDFE0223BD
S11317A013E0012201210120FFF7E6FE01230CE0F2
S11317B001F046FBFFF7AEF9294A136801218B4378
S11317C00B431360032300E004232B6070BD072C3C
S11317D005D0092CFAD11C4B01221A67F6E71A4BE3
S11317E000221A67F2E7042C1AD005D9072C10D06E
S11317F0082CEBD1032202E0012CE7D1002212488D
S1131800AE21490043583024A343120113434350EB
S1131810DCE7012201210420FFF7AEFE0122EEE7FE
S1131820012201210220FFF7A7FE0222E7E7C046BA
S113183004610000002D310184400E402861000045
S11318400148E80104300E4000400E4000050A0043
S113185000300E4088400E4080400E405C61000025
S1131860B0400E4072B6704762B6704770B506005D
S11318700D00164A80235B00D35801F0B7FA040028
S1131880134B1B685B03FBD4124B5A68120C0323E3
S113189013409E420FD0022E0ED00222921B102320
S11318A093400C4A1361002D03D0094B1B685B0362
S11318B0FBD4002E05D070BD02212000FFF7A8F94B
S11318C0EBE700212000FFF7A3F9F4E700400E4006
S11318D004300E4000300E4070B50D000F4A8023D6
S11318E05B00D258120AE13B13405C1C00280BD069
S11318F00B4B1B78002B02D00A4B984208D92900C5
S11319000020FFF7B3FF70BD01F070FA6043EFE70A
S113191029000220FFF7AAFFF5E7C04600400E4069
S1131920C4000020FF2C3101F0B5002A0AD0002B9E
S11319302AD045002D182C0101258D40274EB44690
S113194064442560072929D845002E183401244E03
S1131950B446644464688F000F26BE40B443160046
S1131960BE4034432D182E0166447460002A0AD107
S1131970002B28D143001818030101228A40194979
S11319808C4663441A60F0BD45002D182C010125D6
S11319908D40144EB44664442560D3E745002E18A8
S11319A034010F4EB4466444A4680F4E8E19B60039
S11319B00F27B740BC431700B7403C432D182E01F6
S11319C06644B460D2E743001818030101328A4028
S11319D002498C4663441A60D5E7C0460C80084629
S11319E0008008400C800844F8FFFF3F00E0C36912
S11319F0C368DB05FBD4704770B50400151E2DD0F9
S1131A0003261E4003681B4A134003603202C020B1
S1131A1080008023DB04E3181860C023DB04E31890
S1131A201A60002905D1144B9C4218D0134B9C42D8
S1131A301AD02368124B9B5D6B43002B0ED0ED0034
S1131A40481BC0180138190001F08EFC01382368C6
S1131A509B0702D5002800D10130206170BD0948E0
S1131A60FFF734FA0100E4E70748FFF72FFA010013
S1131A70DFE7C046FFFCFFFF0090084000940840E9
S1131A80D4610000006208000072080003680122AB
S1131A90934319430160704770B504000D0000239F
S1131AA003640A4BC3634A7801235A400368022142
S1131AB08B435200134303602B7BAA686968FFF7CA
S1131AC09BFF29782000FFF7E1FF70BDFFFF0700AF
S1131AD010B50400E0234360002303600361436105
S1131AE083610364FFF782FF014BE36310BDC046CB
S1131AF0FFFF0700F0B59A4B984213D0994B9842D8
S1131B0000D02AE1984B0C339C68416BC022D20070
S1131B10114209D11A78082A00D90DE19200934D97
S1131B20AA589746904BEFE78A0504D5FD225A70D0
S1131B3009221A7011E04A05FAD5FE225A70F7E715
S1131B406188CA060FD52188090A06220A40F021B5
S1131B500A4301211970C26241601A78092A00D12E
S1131B60EFE00120F0BD2288FE2414402200890702
S1131B70EFD501222243ECE70A0613D44A06ECD53A
S1131B804022C2636288D10615D492071AD507226F
S1131B901A701A79D200A4182289012ADDD10732D9
S1131BA04260DAE78022C2637F325A70F73A1A70D1
S1131BB0063A4260D1E702221A702188FD320A40B7
S1131BC0C262CAE705221A709FE70A0609D44A06C8
S1131BD0C3D54022C263628892070BD503221A70D0
S1131BE093E78022C2637F325A70F73A1A70063A3A
S1131BF04260B2E705221A7087E76188CA060FD5EA
S1131C002488240A06222240F0242243490701D5CD
S1131C1001210A430421197003394160C2629CE71F
S1131C202488FE222240F1E70A060AD44A0600D498
S1131C3093E74022C263628852070BD507221A70C9
S1131C408BE78022C2637F325A70F73A1A70063AE1
S1131C50426082E705221A7057E75D881A79D1003D
S1131C60611809898D4214D3002159800132D2B2FE
S1131C701A7161884D0709D4C90702D4012A00D812
S1131C8043E708221A70063A426066E703221A7094
S1131C903BE7D600A4196268691C5980525DC26290
S1131CA006221A7059E70A0607D44A0600D454E7F4
S1131CB04022C2633B3A1A7027E78022C2637F3214
S1131CC05A70F73A1A70063A426046E78A0600D418
S1131CD043E71D79EA00A21812891700C169C9B245
S1131CE05E88B24205D9ED0064196468751C5D8094
S1131CF0A15559888A4209D8012F04D008221A70A4
S1131D00063A426029E708224260F7E7042141606D
S1131D10012F00D821E75988013A914200D01CE7ED
S1131D200822426019E7CA0500D416E7802252004F
S1131D30C263F73A1A7010E7FB225A70F23A1A702B
S1131D400BE70022026401229A56012A02D00120E4
S1131D50185607E700225A70F9E70420404201E7C9
S1131D600090084000940840C8000020B0610000C2
S1131D7010B504001C4B98422BD01C4B98422AD11E
S1131D801B4B0C33A268D20701D5202262604A881B
S1131D90900702D50889002820D0520702D50A8A64
S1131DA0002A1ED000221A70012058705A801A711D
S1131DB09960C02363602000FFF718FE0D4BE363B6
S1131DC0226CFC23DB00134323642000FFF792FE04
S1131DD010BD074BD6E704204042F9E704204042F7
S1131DE0F6E704204042F3E70090084000940840DE
S1131DF0C8000020FFFF070010B50B78002B01D1AD
S1131E0002334360002343628B781B06CA781204B2
S1131E1013438A7992021343CA79120213430A7A4A
S1131E2013434A78002A28D0402213434A7A002ACE
S1131E3025D0802213438A7A002A22D020221343F9
S1131E40CA7A002A1FD0102213430A7B002A1CD00E
S1131E50082213430A79002A19D0802292014C796E
S1131E60002C16D0802464052243134303600B78AE
S1131E70002B01D00123436010BD0022D5E70022CE
S1131E80D8E70022DBE70022DEE70022E1E70022B8
S1131E90E5E70024E8E70000F0B5C64600B586B0E3
S1131EA080461B4F3800FEF703FB01211948FEF75B
S1131EB0C1FE04AC0026267066701F23A370E67072
S1131EC02671667101AD0C220021280004F095F8FA
S1131ED0FF236B7100211048FEF774FAE070AE71B5
S1131EE00123AB70EE7002336B7043462B710020FC
S1131EF0FEF70CFBA07021003800FEF789FA2900D8
S1131F003800FEF7FDF906B004BC9046F0BDC046AB
S1131F100020084000B2080040420F0010B5FFF74F
S1131F20BBFF0A4B01229A60084BDB68DB03FBD53D
S1131F30064B986C02F0C2F9054901F0A9FEE621AE
S1131F40890501F0A5FE02F099F910BD00200840B2
S1131F5000401C450023C356052B01D000207047C8
S1131F600120FCE70023C356002B01D0002070475A
S1131F700120FCE770B504000D00FFF7EBFF00281B
S1131F801ED10122A256531C6370D3009B1A9800E1
S1131F90201804301C22290004F026F80123E356FB
S1131FA0052B0AD0FFF75EFC0023E35601332370B0
S1131FB0FFF75AFC0020205670BD00236370F1E740
S1131FC001204042F8E770B50400FFF7CBFF00287A
S1131FD018D1022161564B1C5BB2A370CA00521A7D
S1131FE090002018051D052B09D0FFF73BFC0023AA
S1131FF0E356013B2370FFF737FC280070BD002334
S1132000A370F2E70025F8E770B582B004000E0073
S113201001212148FEF70EFE204B9C421AD00021DC
S11320202000FEF751FD01212000FEF74DFD0125A2
S11320300195022300930533062219492000FEF777
S11320409BFA31002000FEF7D1FA2368AB432360EA
S113205002B070BD134B802212061A60012112488F
S1132060FEF7E8FD2000FEF7E9FA23680122934316
S113207013432360002300210220FFF755FC0023B3
S1132080042201210220FFF74FFC0023002201213A
S11320902000FEF765FAC2E7404105000040004019
S11320A040420F0000E100E0003E040070B584B03F
S11320B005000C0008A908780AA909782270636051
S11320C02072099B6361002913D1012603960296AD
S11320D0002301930091013301212800FEF7C8FB7E
S11320E000962300002201212800FEF73DFB04B0E6
S11320F070BD0123039302930023019300910133E4
S113210000212800FEF7B4FBF1E7000010B5114BE5
S11321105B68DA0618D5102293430E4A53600023F5
S113212004E00D4AD2180021517201330A4A127A8E
S11321309A42F6DC084C220001210648FEF76EFCA8
S113214021000648FFF716FF024B012252429A6310
S113215010BDC04600400040E0000020CC0100203B
S113216010B50200012300210148FEF7CFFB10BD8A
S11321700040004010B504000930082203F034FF89
S11321802000FFF7EDFF064B5B6801E0044B5B6842
S11321901A07FBD508229343014A536010BDC04679
S11321A00040004070B584B001000D4C2000FFF7E2
S11321B02BFF012302930025019508260096453341
S11321C0052208492000FFF771FF0295019500964A
S11321D06423062204492000FFF768FF04B070BDA1
S11321E000400040FC000020E000002030B589B031
S11321F0050001AC1C220021200003F0FEFE052393
S11322002370413363603E3B237201246C71073BAE
S1132210042204210220FFF787FB01230422082162
S11322200220FFF781FB0F4B1B681B091C4203D0E4
S11322300C4B1B68DB050FD40B4B10221A70FE23CA
S1132240AB71082229000D20684403F0CDFE01A8DB
S1132250FFF786FF09B030BD034B20221A7001231B
S1132260AB71EEE76C800840C801002030B589B03E
S1132270050001AC1C220021200003F0BEFE052352
S11322802370413363603E3B237201246C7100234D
S1132290042208210220FFF747FB00230422042123
S11322A00220FFF741FB104B10221A700F4B1B68E2
S11322B01B091C4203D10D4B1B68DB050FD50A4BD0
S11322C020221A70FD23AB71082229000D206844D6
S11322D003F08AFE01A8FFF743FF09B030BD024BAB
S11322E01A700223AB71EFE7C80100206C8008402C
S11322F0F0B5CE46474680B58BB0050003AC1C2232
S11323000021200003F079FE05232370413363602C
S11323103E3B23720822002101A803F06EFEEA78F6
S11323201202AB7813431BB298469BB29946334AC8
S1132330012151564B005B181F01BF180237302191
S1132340380000F08DF9060000243AE001A90C7071
S113235009234B7043468B704B461B0ACB703023CA
S11323600B712E3B4B7103A8FFF704FF28E001AD6E
S113237008220021280003F040FE2C70611E072271
S1132380514379186B46581D03F02EFE290003A80B
S1132390FFF7F0FE14E001AD08220021280003F04D
S11323A02CFE2C70631ED900C91A791806226B46BC
S11323B0581D03F019FEEE71290003A8FFF7DAFE99
S11323C00134082C14DC002CC0D0631E052BCED99C
S11323D0072CE0D001AD08220021280003F00DFEF7
S11323E02C70330A6B70290003A8FFF7C3FEE7E7DC
S11323F00BB00CBC90469946F0BDC04628010020A5
S113240030B589B0050001AC1C220021200003F086
S1132410F4FD05232370413363603E3B23720124A2
S11324206C71073B042202210220FFF77DFA01238D
S1132430042203210220FFF777FA174B1B689B083D
S11324401C4203D0144B1B681B0712D4134B1022DD
S11324501A70FB23AB71082229000D20684403F095
S1132460C3FD01A8FFF77CFE0D4B02221A7009B0D0
S113247030BD0A4B02221A700423AB71033B0232B3
S113248009210220FFF750FA012304220A21022025
S1132490FFF74AFADFE7C0466C8008407402002068
S11324A06B02002030B589B0050001AC1C2200216C
S11324B0200003F0A2FD05232370413363603E3BFB
S11324C0237201246C71002304220A210220FFF7E5
S11324D02BFA0023042209210220FFF725FA002306
S11324E0042203210220FFF71FFA00230422022101
S11324F00220FFF719FA114B1B689B081C4203D1F9
S11325000E4B1B681B0712D50D4B02221A70FA23BF
S1132510AB71082229000D20684403F065FD01A871
S1132520FFF71EFE074B01221A7009B030BD044BA1
S113253010221A700523AB71EBE7C0466C8008408B
S1132540740200206B02002010B584B0040008223D
S1132550002102A803F051FD08220021684603F07F
S11325604CFD2000FFF72FFD002802D04368642BA8
S113257001D004B010BD027A082AFAD10100093151
S113258002AC200003F030FD6379012BF1D102ABE2
S11325901B78002BEDD102AB5B78012BE9D102ABA8
S11325A01B79012BE5D100236A46137001226B4687
S11325B05A7002AB997868468170D978C1700271FB
S11325C09B79013BDAB2042AD3D8DBB29B000B4AD5
S11325D0D3589F466846FFF709FECAE76846FFF7E7
S11325E045FEC6E76846FFF783FEC2E76846FFF785
S11325F007FFBEE76846FFF755FFBAE7D86100005A
S113260010B50248FFF7A0FF10BDC046CC01002062
S113261010B50248FFF798FF10BDC046CC0100205A
S113262010B50E4B01221A70002303320A21022036
S1132630FFF77AF90023042209210220FFF774F935
S11326400023042203210220FFF76EF90023042251
S113265002210220FFF768F910BDC0466B0200207A
S113266030B5002811D0002200240AE01502120A15
S113267003785A405200064BD35E6B409AB2013441
S113268001308C42F2DB100030BD0022FBE7C04673
S1132690EC61000070B584B004006B462B4A19004D
S11326A061CA61C112680A60294A9A6001221A73D8
S11326B001212848FEF7BEFA002C03D0012C25D0B6
S11326C004B070BD01212448FEF7B4FA01230822A6
S11326D006210320FFF728F901230A2207210320FA
S11326E0FFF722F91D4803234364836C07229343B5
S11326F0063A13438364836C194A1A4080235B00AF
S1132700134383646946FFF7C7F9D9E701211548E4
S1132710FEF790FA0123082204210320FFF704F9AD
S113272001230A2205210320FFF7FEF80E480322A5
S11327304264836C07218B4313438364836C084A8C
S11327401A40C0239B0013438364DBE7EC6300005F
S11327501027000000250A000062080000900840CD
S1132760FFF8FFFF007208000094084010B5002035
S1132770FFF790FF0120FFF78DFF10BD10B586B065
S113278004004A7801AB1A808A785A80CA1C0292E3
S1132790CA791A810A00083204928A7B1A821900C3
S11327A0FFF7E6FA154B00221A6002E02000FFF75B
S11327B0A1F9012803D1114B1B68022BF6D90F4B49
S11327C01B68022B07D8031D05D0C31C03D0831C30
S11327D001D0431D08D12000FFF77AF9084B9C4231
S11327E004D0084B9C4205D006B010BD0020FFF772
S11327F051FFF9E70120FFF74DFFF5E770020020D4
S1132800009008400094084070B505000C000F22A9
S11328100021200003F0F1FB0D48AB005B191A5CAA
S11328202270C018437863708378A370C378E3710F
S11328300023E3700379A373002A03D0012A05D18E
S1132840044800E004482100FFF798FF70BDC0462B
S113285004000020009408400090084070B5140063
S1132860FFF7D2FF114D287A00016B7A1B09184338
S113287001F024FD03F0A2FA0D4A0E4B02F08EFC87
S113288003F0EEFA2060AB7A1B01EA7A12091A43CC
S113289093009B189A009B181803001301F00EFD77
S11328A0054901F01DF86060002070BD5C02002045
S11328B0FCA9F1D24D62603F00007A4410B50023B8
S11328C00A4A13700A4A13600A4A136090220021CC
S11328D0094803F092FB1C220021084803F08DFBF9
S11328E00F220021064803F088FB10BD6B02002074
S11328F0BC01002070020020CC010020FC0000205C
S11329005C02002010B500F09BFA01220121022094
S1132910FEF732FE04211120FEF7C0FE0022002142
S11329200320FEF729FE01210348FEF783F9012164
S11329300248FEF77FF910BD4041050000250A005A
S113294010B5082200210B4803F057FB0822002190
S1132950094803F052FB92220021084803F04DFB82
S11329601023074A1370074A1370074A1370074A63
S1132970137010BDC00100201C010020280100209C
S113298074020020240100206C020020C8010020F1
S113299070B5041C134901F07BF9051C211C124875
S11329A001F0A8FA011C281C00F09AFF0D4900F060
S11329B097FF03F003FA00F071FA00220B4B01F0C9
S11329C0E3FFE02212060A4B01F0C2FC02000B00F6
S11329D00020084901F0D8FF03F042FA064901F04B
S11329E089FA70BD00401C4600401C4500DCAE4026
S11329F0E1796B3F0000F03F33938843022802D013
S1132A0005280AD070471A2903DC094B20221A70C2
S1132A10F8E7074B10221A70F4E71A2903DD054B77
S1132A2010221A70EEE7034B20221A70EAE7C04620
S1132A30240100206C020020F0B583B004000025BE
S1132A4045579B4A9B490020FFF708FF002800DAFE
S1132A5029E1974A6B005B1919016118881D5368B5
S1132A608B71190A4170190C81701B0EC370914946
S1132A700120FFF7F3FE002800DA14E18C4A8D49A7
S1132A800220FFF7EBFE002800DA0CE1884E6B0011
S1132A905B191A01A2181100736893721A0ACA7298
S1132AA01A0C0A731B0E4B73706801F0E7FB0100EC
S1132AB00220FFF7A3FF32007E490320FFF7CEFE7A
S1132AC0002800DAEFE06A0052191301E3182A33F0
S1132AD0774A52681A70110A5970110C9970120EC3
S1132AE0DA70754A73490420FFF7B8FE002800DA4B
S1132AF0D9E0714B5E686A0052191301E3182E3352
S1132B001E70310A5970310C9970320EDA70684BAC
S1132B105F68391C301C00F003FD002800D03E1C07
S1132B206B005B191F01E719BE74320AFA74320C88
S1132B303A75360E7E755E4E3168081C00F036FD1F
S1132B4001905D4B1868011C00F030FD011C0198D8
S1132B5000F02CFDB875020AFA75020C3A76000EE4
S1132B607876320053490520FFF778FE002800DA12
S1132B7099E04F4E7368BB731A0AFA731A0C3A74CD
S1132B801B0E7B74706801F079FB01000520FFF7D0
S1132B9035FF320047490620FFF760FE002800DABF
S1132BA081E043493E003A004B68BB77180AF87746
S1132BB01E32180C90701B0ED37008683F4901F048
S1132BC067F822363070020A7270020CB270000E7E
S1132BD0F0700027002609E013005A1E002BFBD1D9
S1132BE08B20FFF79BF93F18013676B2132E02DCD7
S1132BF0FA23DB00F1E7380003F0A6F8304A314B42
S1132C0002F0CCFA03F02CF9FFF7C2FE6A00521965
S1132C101301E3181A009876030AD376030C13778A
S1132C20000E50770027002609E013005A1E002BDF
S1132C30FBD18D20FFF772F93F18013676B2132EBF
S1132C4002DCFA23DB00F1E7380003F07DF81C4ACC
S1132C501C4B02F0A3FA03F003F9FFF799FE690095
S1132C604A191301E218130026331870060A5E701D
S1132C70060C9E70000ED870134B1B789370134B88
S1132C801B78D370124B1B781371124B1A784D19A1
S1132C902B01E3185A710022A256531C5BB2237015
S1132CA06270032B01D003B0F0BD00232370FAE758
S1132CB0C00100205C0200201C01002000004040F4
S1132CC09A9999999999A93F7402002024010020A6
S1132CD06C020020C801002010B50C4B1B68002BAF
S1132CE004D10B4B1B681433084A1360084B1A6851
S1132CF0064B1B689A4200D210BD054B1B68143367
S1132D00024A13600348FFF797FEF5E71801002015
S1132D10BC01002028010020094B01225A61094B03
S1132D201A6801321A6008490A6801320A601A688E
S1132D30064B9A4202D9034B00221A607047C046E0
S1132D4000800140BC0100207002002017FCFFFF3E
S1132D50014B01225A6170470084014000B585B0DF
S1132D6001210E48FDF766FF0B2200216B46981CDB
S1132D7003F043F901226B461A705A700323694623
S1132D808B700748836913438361064B1F321A60B3
S1132D90054BC361FFF730F805B000BD00420600E3
S1132DA00080014000E100E0127A000010B5FFF756
S1132DB0D5FF10BD064880470649074A074B9B1AB2
S1132DC003DD043BC858D050FBDCFDF79DF900003F
S1132DD0752E00005465000000000020A8000020AB
S1132DE0FEE7C04600487047006CDC0210B5104A8C
S1132DF09423D2588D3B1340032B16D0042B04D0BC
S1132E00022B0FD00B4B186801E00B4B1868084AD3
S1132E1080235B00D3581B0A1F211940013100F0A5
S1132E20A3FA10BD054B1868F1E780200002EEE715
S1132E3000400E4030000020340000202C00002010
S1132E4010B5FFF7D3FF064A84235B00D158090A63
S1132E50C905C90D013100F087FA024B186010BD95
S1132E6000400E4028000020014B18687047C046FF
S1132E702C000020014A024B9A60704700000000B9
S1132E8000ED00E0802000027047FA2080007047C7
S1132E90014B18687047C04634000020F0B5C646A0
S1132EA000B58CB004000D0000F080F83A4B060029
S1132EB01B780F005BB2984601330FD022002B0021
S1132EC02000290002F024FF002807D1002200235B
S1132ED02000290000F0FEFA002805D03000390057
S1132EE00CB004BC9046F0BD2C4B0A9003934346AF
S1132EF00494059506940795002B1AD1E022284BDB
S1132F00120608920993200000220023290000F0F1
S1132F10C7FA002838D00223029302A800F01CFA52
S1132F20002817D00A9B0193002B18D1089E099FF3
S1132F30D4E700221B4B20000892099329000022A9
S1132F40002300F0ADFA00280FD002230293434679
S1132F50022BE2D103F008F822230360E2E703F036
S1132F6003F80A9B01930360E0E7012302934346BD
S1132F70022B0BD102F0F8FF212303600A4800F072
S1132F80EDF908900991CDE70123029302A800F01E
S1132F90E3F90028F2D1EDE738000020FC630000DB
S1132FA0FFFFEFC70000F0FF00640000F0B5D64655
S1132FB04F464646C0B5CA4A86B00B00914200DD72
S1132FC0CCE04A005208024300D1D6E0002900DADE
S1132FD0E6E0C44B002202F0E1F83625C24C0B00B7
S1132FE06D42A34200DDBEE01A15C04C1B031B0B4F
S1132FF09846A4468024BE4B640343442340BD4CFE
S1133000624452195C4045461B1599462543B94B09
S113301029009144002202F033FB434602331B0390
S113302006000F001B0B0022022B00DCACE0802307
S1133030DB0501F08DF902000B003000390001F0CE
S1133040A3FC040048460D0002F07EFE220000901E
S113305001912B00200029000494059502F09EF8AC
S11330600D000400A449220041442B008A4620009C
S113307029000294039502F091F804000D009F4A80
S11330809F4B02F08BF89F4A9F4B01F061F922009D
S11330902B0002F083F89D4A9D4B01F059F9220060
S11330A02B0002F07BF89B4A9B4B01F051F9029AEA
S11330B0039B02F073F8994A02900391984B200005
S11330C0290002F06BF8974A974B01F041F922006E
S11330D02B0002F063F8954A954B01F039F9220070
S11330E02B0002F05BF80B0002000298039901F038
S11330F02FF90D0041468F4B04005B1A51460B43D8
S1133100002B00DC95E000228B4B3000390002F0EC
S113311045F832003B0002F041F80A0001001300B8
S11331200291039202002900200001F011F9049A8F
S1133130059B02F033F84B4604000D00002B00D031
S11331408DE002000B000298039902F099FA020044
S11331500B003000390002F093FA08E0624C0025BD
S1133160A34200DC40E702000B0001F0F1F806B0D6
S11331701CBC90469946A246F0BD002200230020C4
S11331806E4901F001FCF2E7002300F089F9002800
S11331900ED04B46002B00D084E000200021E6E74F
S11331A0020002F06DFA0022002301F0EDFBDEE7DD
S11331B0634A644B3000390001F0F0FF02000B0059
S11331C000205D4902F05CFA320004000D003B006F
S11331D03000390001F0E2FF0B000200290020005A
S11331E001F0DCFF4B4604000D00002B30D04846B4
S11331F002F0AAFD00900191534A544B01F0CEFF16
S1133200534A0290039100980199524B01F0C6FF72
S113321002000B002000290002F032FA32003B00C9
S113322002F02EFA02000B000298039902F028FA29
S11332309DE722002B003000390002F021FA049AA5
S1133240059B01F0ABFF4B4604000D00002B41D160
S113325022002B003000390002F012FA87E73A4AC4
S11332603A4B0098019901F099FF394A049005916D
S113327000980199374B01F091FF22002B0001F0D7
S113328067F802000B000298039902F0F9F9320082
S11332903B0002F0F5F902000B000498059902F0D6
S11332A0EFF964E7484602F04FFD274A274B040034
S11332B00D0001F073FF264A06000F00254B200085
S11332C0290001F06BFF02000B003000390001F00F
S11332D03FF84CE71C4A1D4B009801998EE7C04605
S11332E0FFFF0F0000005043FFFFEF7F01FCFFFFD3
S11332F0645F09000000F03F86EBF9FF44523EDFB3
S113330012F1C23FDE03CB966446C73F5993229421
S11333102449D23F935555555555E53F9FC678D01E
S1133320099AC33FAF788E1DC571CC3F04FA9799B3
S11333309999D93F51B806000000E03F000050C3FE
S1133340555555555555D53F0000E0FE422EE63FF4
S1133350763C7935EF39EA3D002070470020014979
S11333607047C0460000F87F002243088B4274D3A4
S113337003098B425FD3030A8B4244D3030B8B4272
S113338028D3030C8B420DD3FF22090212BA030C7B
S11333908B4202D31212090265D0030B8B4219D35C
S11333A000E0090AC30B8B4201D3CB03C01A52417C
S11333B0830B8B4201D38B03C01A5241430B8B42C4
S11333C001D34B03C01A5241030B8B4201D30B03AD
S11333D0C01A5241C30A8B4201D3CB02C01A5241D4
S11333E0830A8B4201D38B02C01A5241430A8B4297
S11333F001D34B02C01A5241030A8B4201D30B0280
S1133400C01A5241CDD2C3098B4201D3CB01C01A99
S1133410524183098B4201D38B01C01A52414309A3
S11334208B4201D34B01C01A524103098B4201D391
S11334300B01C01A5241C3088B4201D3CB00C01AFE
S1133440524183088B4201D38B00C01A5241430876
S11334508B4201D34B00C01A5241411A00D201469B
S1133460524110467047FFE701B5002000F006F80E
S113347002BDC0460029F7D076E770477047C046C2
S11334808446101C62468C46191C634600E0C04604
S11334901FB501F01BFE002801D40021C8421FBD46
S11334A010B501F073FD4042013010BD10B501F0BC
S11334B00DFE002801DB002010BD012010BDC04618
S11334C010B501F003FE002801DD002010BD01202D
S11334D010BDC04610B501F095FD002801DC0020A8
S11334E010BD012010BDC04610B501F08BFD0028B1
S11334F001DA002010BD012010BDC0468446081C1E
S11335006146FFE71FB500F073FB002801D40021DA
S1133510C8421FBD10B500F0F5FA4042013010BD9D
S113352010B500F065FB002801DB002010BD012070
S113353010BDC04610B500F05BFB002801DD002083
S113354010BD012010BDC04610B500F003FB0028DB
S113355001DC002010BD012010BDC04610B500F0F4
S1133560F9FA002801DA002010BD012010BDC04680
S11335701C2101231B04984201D3000C10391B0A9F
S1133580984201D3000A08391B09984201D3000963
S1133590043902A2105C40187047C04604030202BA
S11335A0010101010000000000000000F8B54746D9
S11335B0CE4643025B0A4400C20F9C464800DD002D
S11335C04B02240E5B0A000E80B5984626009146F5
S11335D0C90FDB00271A8A4229D0002F15DD0028E5
S11335E04AD1002B00D095E0ED08FF2C00D188E0F3
S11335F06B025B0AE6B25B02F605580A3043D20757
S113360010430CBC90469946F8BD002F00D087E0CB
S1133610601CC0B2012800DCB6E0EE1A720100D5CD
S1133620C5E0002E3DD1002200260023E3E7002F51
S113363000DC96E000285DD0FF2C60D08022D2040C
S113364013431B2F00DDECE02022D21B1800934013
S1133650F8405A1E93410343ED186B017BD50134A6
S1133660FF2C00D1B7E0012207262A406B089A4DAF
S11336701D4015432E4029E0FF2CB5D08022D204F2
S113368013431B2F00DDB2E02022D21B190093400C
S1133690F9405A1E93410B43ED1A6B015BD5AD0102
S11336A0AE093000FFF764FF05388640844265DCCC
S11336B0041B330020200134E340041BA640751E84
S11336C0AE41334307261D0000241E4001224B4611
S11336D01A40002E04D00F232B40042B00D00435B5
S11336E06B0100D480E70134E6B2FF2C2FD1FF2612
S11336F0002380E7002B52D1FF2C00D074E70A008E
S1133700ED08002DF3D08023DB032B435B025B0A1F
S1133710FF2670E7013F002FBED0FF2CB1D163E735
S1133720002C47D0FF2869D08024E4047A42254342
S11337301B2A00DDC5E02C002026D440B21A954097
S11337406A1E954125435D1B04008946A5E7AB012C
S11337505B0A50E7002401224B461A406B07BAD19A
S113376042E7002F3BD10134E0B201284ADDFF2CAF
S1133770BDD00726ED186D082E40A7E70723574D47
S1133780241A35401E40A1E7002C1BD1002D6ED118
S1133790002B00D19AE00A001D003C0024E7013F01
S11337A0002F00D158E7FF2C00D04AE7A7E75E1BA3
S11337B0894676E7002D1CD10A00FF281FD004009B
S11337C01D0011E7002D5DD1002B17D180230022AD
S11337D0DB03FF260FE70A00FF2600230BE7002C7C
S11337E021D1002D66D1FF28E9D11D0087E70123EF
S11337F052E77A1CA7D0FA43FF2899D10A001D008A
S1133800FF24F1E6002E21D1002D4FD0002B4CD007
S1133810ED186B019ED5314B07362E4001241D4017
S113382054E7012318E7FF28DFD08024E4047F4213
S113383025431B2F4DDC2026F61B2C00B540FC40F5
S11338406A1E95412543ED18040006E7002DCCD0EF
S1133850002B00D153E780216046C903084203D0FE
S11338604046084200D11D000121114047E7002BCA
S113387000D1B9E6EA1A500125D507265D1B2E4072
S1133880894623E7FF24002B00D1ADE68022604661
S1133890D203104204D04046104201D11D00894693
S11338A001224B46FF241A409EE62B00DD080A0045
S11338B000249DE67A1CC6D0FF43FF28B9D11D0021
S11338C01DE701253FE7151E00D044E70022002331
S11338D091E60125B7E7C046FFFFFF7DFFFFFFFB31
S11338E0F8B557464E464546DE464402E0B5460026
S11338F08846640A360EC70F002E63D0FF2E24D0EC
S11339008023E400DB041C43002399469B467F3E4E
S1133910434642465D02D20F5B006D0A1B0E904681
S1133920924665D0FF2B55D080220021ED00D204B1
S11339307F3B1543F61A43464A467B400F2A00D97B
S11339408DE06D48920082589746002C54D108238C
S11339509946063BFF269B46DAE700255346022993
S11339601BD0032900D1BFE0012928D030007F30CB
S1133970002820DD6A0704D00F222A40042A00D040
S113398004352A0103D530005C4A80301540FE28F6
S113399003DCAC01640AC2B201E0FF220024640229
S11339A0D205600ADB07104318433CBC9046994695
S11339B0A246AB46F8BD0122101A1B287CDD00226A
S11339C00024ECE7002C1DD104239946033B002678
S11339D09B469DE7FF3E002D20D1022143464A46E7
S11339E07B400A430F2AD8D845489200825897460C
S11339F0002D19D10121F1E70C239946093BFF263B
S1133A009B4685E72000FFF7B3FD7626431F9C40C5
S1133A1000237642361A99469B4679E74A460323A1
S1133A201A439146032186E72800FFF7A1FD431FAF
S1133A3036189D40763600217DE780240023E40378
S1133A40FF22ACE700258023DB031C4228D01D4263
S1133A5026D12B435C02640A4346FF229FE762019E
S1133A606C01A24224D21B210025013E0127100033
S1133A706D005200002801DB944201D8121B3D4323
S1133A8001390029F3D11400621E944125436DE7E6
S1133A90BA46594625005346022900D061E77CE71F
S1133AA08023DB031C436402640A3B00FF2276E7A5
S1133AB0121B1A210125D9E79E362A00B5402C0095
S1133AC0C240651EAC411443620704D00F22224059
S1133AD0042A00D00434620103D4A401640A00223D
S1133AE05DE7012200245AE78024E4032C436402A6
S1133AF0640AFF2253E7C04604640000FFFFFFF797
S1133B004464000070B542004E024C0045026D0A48
S1133B10120EC30F760A240EC90FFF2A0FD0FF2CF2
S1133B2011D00120A24200D070BDB542FCD18B421D
S1133B300DD0002AF8D12800451EA841F4E7012041
S1133B40002DF1D1EBE70120002EEDD1E9E70020B3
S1133B50EAE7C04670B54A004E02450244006D0AC9
S1133B60240EC30F760A120EC90FFF2C15D0FF2A9C
S1133B700ED0002C15D1002A01D1002E1CD0002D0E
S1133B8014D08B4227D00220013B1840013870BD6D
S1133B90002EEED002204042F9E7002DFAD1FF2A90
S1133BA00ED0002A0ED1002EEDD00BE001230139F6
S1133BB0994308000130EAE70020002DE7D0E2E74E
S1133BC0002EE7D18B42DED1944205DD0221581E3E
S1133BD008400138DBE70024A24204DCB542D2D815
S1133BE00020B542D3D2581E012398430130CEE7BA
S1133BF030B5420044024D02C30F4800640A120E5D
S1133C006D0A000EC90FFF2A12D0FF280CD0002A1B
S1133C1012D1002819D1002D17D1002C2BD002204D
S1133C20013B1840013826E0002DF0D0022022E0AC
S1133C30002CFBD1FF281FD000281FD1002D1DD13F
S1133C400220013B1840013815E0002C0ED08B42B5
S1133C50E5D10022904204DCAC42E0D80020AC4222
S1133C6009D2581E01239843013004E0012301398D
S1133C7099430800013030BD002DD7D18B42CED1FD
S1133C808242E7DD0221581E08400138F3E7C046AE
S1133C90F0B54E4657464546DE46E0B543025B0A5C
S1133CA0450083B00F1C99462D0EC60F002D57D02A
S1133CB0FF2D24D08020DB00C0041843002381465C
S1133CC09A469B467F3D7C027A00FB0F640A120EE3
S1133CD0984623D0FF2A4BD0E30080240020E4043C
S1133CE07F3A1C43AD186B1C4746019353467740FB
S1133CF03A000F2B48D87D499B00CB589F46002B98
S1133D0000D085E008339A46063B9B467C027A0045
S1133D10FB0FFF25640A120E9846DBD1002C00D05D
S1133D2090E0524601231A4392460120DBE74C46B9
S1133D3058461700022824D0032800D1CFE00022DF
S1133D40002301284DD15802D205400AFF07104331
S1133D50384303B03CBC90469946A246AB46F0BDFE
S1133D60002B5BD104239A46033B00259B46AAE71C
S1133D70FF35002C60D1524602231A43924602209A
S1133D80B1E7FF220023DEE74B461B0C9C464B4663
S1133D902604360C180461463300220C6446000CD9
S1133DA043434E435043544380191A0C121896420D
S1133DB003D9802149028C4664441B041B0C100463
S1133DC0C01883015E1EB341800E1843130C1B19E7
S1133DD09B0103431C00230179D5012362081C4085
S1133DE01443019A7F32002A4DDD630704D00F2368
S1133DF02340042B00D00434230103D53C4B019A07
S1133E001C408032FE2ABCDCA3015B0AD2B29AE7D2
S1133E100C239A46093BFF259B4654E71800FFF7FD
S1133E20A7FB4A46431F76259A4000236D429146DC
S1133E302D1A9A469B4646E7524603231A43924656
S1133E40032050E72000FFF793FB431F2D1A9C40EB
S1133E50763D002047E780230027DB03FF2272E73B
S1133E60424666E74C463200584662E780234A469B
S1133E70DB031A4222D01C4220D123435B025B0A9B
S1133E804746FF225FE701239A1A1B2A21DC2300FD
S1133E900199D3409E318C401A0023005C1EA3413B
S1133EA013435A0704D00F221A40042A00D00433C3
S1133EB05A0111D49B015B0A002244E780234A463D
S1133EC0DB0313435B025B0A3700FF223BE70195E8
S1133ED087E70022002336E70122002333E780230B
S1133EE0DB0323435B025B0AFF222CE784640000AC
S1133EF0FFFFFFF7F8B54746CE464400C20F80B532
S1133F0047024802400A8446664648007F0A240E57
S1133F10F60025009046FB00000EC90FB146FF28AD
S1133F2000D185E001267140261A914257D0002E17
S1133F3043DD002800D07FE04946002900D1AAE0F3
S1133F40013E002E00D0F7E05B1A5A0100D48BE04A
S1133F509B019C092000FFF70BFB05388440854238
S1133F6000DDD3E0451B230020200135EB40451B39
S1133F70AC40621E94412343072400251C400122C7
S1133F8041460A40002C04D00F211940042900D0D6
S1133F900433590100D480E00135ECB2FF2D00D088
S1133FA0A3E0FF2400235B02E405580AD207204360
S1133FB010430CBC90469946F8BD002E74D1601C89
S1133FC0C0B2012800DCA7E04A469C1A620100D571
S1133FD0B6E0002CBED1002200240023E3E7002E2B
S1133FE000DC85E0002846D0FF2C49D080224846DA
S1133FF0D2041043814601221B2E09DC20204C46AA
S1134000801B84404A462000F240441EA0410243E3
S11340109B185A0128D50135FF2D00D1A8E00122B3
S1134020072494491A405B080B4013431C40A6E73D
S1134030002E00D078E775E7FF2C54D08022494643
S1134040D2041143894601221B2E09DC2021484653
S1134050891B88404A460100F240481E81410A43B8
S11340609B1A5A0100D573E7012241460A405907B9
S113407000D089E711E04846002858D1FF2C0CD124
S1134080DB08002B00D18CE78020C00303435B02D4
S11340905B0AFF2487E7FF2C25D0DB08FF2DF0D037
S11340A05B025B0AECB27EE7002C4DD0FF2818D0EF
S11340B08024E404724223431B2A00DDC4E01C0074
S11340C02025D440AA1A93405A1E934123434A46BA
S11340D00500D31A884638E7721CF8D0F243FF284B
S11340E0EAD10A004B46FF25D7E79B015B0A5AE752
S11340F0002E41D1651CE9B2012945DDFF2D00D117
S11341004FE707244B445B081C4038E707225A4B0F
S11341102D1A2340144032E7002C1DD1002B7AD1F4
S11341204B46002B00D191E00A000025B5E7013E83
S1134130002E19D14B446CE7FF2C84D1FF25ACE74A
S11341404A468846D41A05E7002BC5D10A00FF2841
S1134150C8D005004B46A0E7002B49D14B46002BA5
S113416077D00A00FF2598E7FF2C00D043E787E7C4
S11341700A00FF24002316E7002C15D1002B57D189
S1134180FF28E6D14B467BE7002C20D1002B57D0EB
S11341904946002953D04B445A0168D50724364A6E
S11341A01C4001251340EAE6FF28EBD08022D2040C
S11341B0764213431B2E53DC2025AD1B1A00AB4063
S11341C0F2405C1EA34113434B44050021E7002B3E
S11341D0D8D04946002900D152E78021C9030F42B3
S11341E000D14DE76046084200D049E74B4647E717
S11341F04846FF25002800D14FE78022D20317420A
S113420004D06046104201D14B4688460122414603
S1134210FF250A4041E7484600281FD01A1A5001DA
S113422020D54A460724D31A1C4088460025A6E612
S1134230741CC9D0F643FF28BCD14B4620E79946ED
S11342404B460025DB082BE7012340E7002200232F
S1134250A9E680230022DB03FF24A4E600251CE753
S11342600123B1E7002AF1D013000025FCE6002564
S1134270FAE6C046FFFFFF7DFFFFFFFB410242005D
S1134280C30F490A120E00207E2A0DD99D2A0CD88C
S1134290802000040143952A0ADC9620821AD1402A
S11342A04842002B00D108007047034A9818FBE7E6
S11342B0963A9140F4E7C046FFFFFF7F70B50028AF
S11342C03DD0C317C5185D40C40F2800FFF750F94F
S11342D09E22121A962A07DCD2B2082833DD083847
S11342E085406802400A23E0992A0BDD0523290052
S11342F01B1AD94003001B339D402B005D1EAB41AC
S113430019430D00052801DD431F9D402B000F4973
S11343100B406E0709D00F263540042D05D0043319
S11343205D0102D59F220B40121A9B01580AD2B29A
S11343304002D205400AE4071043204370BD002424
S113434000220020F4E76802400AF1E7FFFFFFFBC8
S1134350F0B54F464646D6460C000903C0B5490A97
S1134360470F5E0039431F03DB0F9C4665007B0A41
S1134370570F1F436D0DE40F760DA146C000B846DC
S1134380D200AB1B64457BD0002B5FDD002E00D038
S1134390A4E03E00164300D112E15E1E002E00D0C0
S11343A09EE1871A4346B84280410125C91A40421A
S11343B0091A0B0200D431E149024E0A002E00D141
S11343C06EE13000FFF7D4F80300083B1F2B00DD3B
S11343D061E120223900D21A9E40D1409F400E4311
S11343E09D4200DD51E15D1B6B1C1F2B00DD7CE158
S11343F02021C91A3D0030008F408840DD40791EDD
S11344008F41310007222843D940002507433A4011
S1134410002A09D00F233B40042B05D03B1DBB428F
S1134420BF417F42C9191F000B0200D426E26A1C57
S1134430C64B55056D0D9A4200D106E1C44AFF08EA
S11344400A40530752023B43120B8EE0002B00D06C
S1134450B8E06B1C5B055B0D012B00DC30E1871AB7
S11344604346B842B641CB1A76429E1B330200D56E
S11344704CE13B003343A1D100220024002570E02D
S1134480002B00DCE5E0002E00D183E0AF4EB54206
S113449060D0802636043743B846382B00DC3EE132
S11344A0434613431F007A1E97413F1887428041B9
S11344B0404209180B0200D4B0E0A44B01359D42E0
S11344C000D1C3E0A24A7B080A4001210F401F43E8
S11344D05108D30707221F433A4099E79B4EB54240
S11344E038D0802636043743B846382B00DDDCE06C
S11344F01F2B00DC30E11E004746203EF740BC463F
S1134500202B04D04026F31A46469E40324317001F
S113451063467A1E97411F43CCE0002B00D104E28E
S11345204346134300D159E14B07C0081843802385
S1134530C9081B03194208D04546ED081D4204D1A1
S11345404346D008590708432900420FC9007F4D4C
S11345501143C0004B07CA087C49C00803438D427D
S113456068D012036D05120B6D0D002112031800A3
S1134570130B0A0D12051A43764B2D0513402B43DA
S11345805B00E4075B08234319001CBC9046994672
S1134590A246F0BD3E00164312D05E1E002E00D08F
S11345A000E18718874280414144404209180125AF
S11345B00B0233D5022585E76446330041461000DB
S11345C01D00C7E7002D00D0DAE00C000443F3D04F
S11345D05C1C00D19FE15D4CA64200D12FE1DB437E
S11345E0382B00DD66E11F2B00DD83E1202405006C
S11345F0E41A0F00DD40D940A0404346A7405B1AAF
S1134600441EA04198462F433843171ABA42924198
S113461043465242991A64463500CAE607223A4094
S1134620002A00D0F6E64B07CA084849FF083B4376
S11346308D4296D11900114300D19EE180210903D6
S11346400A431203120B414D8FE715000022002389
S11346508BE7002B00D0C7E06B1C5F057F0D012F9B
S113466000DCF1E0394DAB4200D1B9E085180A0015
S1134670854289414244494251180722CF076D08B7
S11346802F4349083A401D00C2E607223049ED1A7B
S113469031403A40BCE63E002838864000279FE679
S11346A03800FEF765FF20308EE6434613431F00B3
S11346B07A1E9741C71BB84280414042091A78E6E6
S11346C00E003B0006431343002D61D1002E00D0A1
S11346D0F4E0002B00D11BE164463900100039E7F7
S11346E01A4FBB427AD03300FFE630001F3DE8404A
S11346F0202B03D04021CB1A9E4037437B1E9F4181
S1134700072207433A400021002589E7171A434648
S1134710BA42B641591A76428E1B64464EE61F2BA6
S113472000DDADE020264746F61AB740B94617002B
S1134730B246DF404E463E4337005646B240561E10
S1134740B24117434246DA408918AEE6FF0700003B
S1134750FFFF7FFFFFFF0F8020264746F61AB74072
S1134760B9461700B246DF404E463E433700564630
S1134770B240561EB24117434246DA40891A99E7BD
S11347807F4CA6425BD0802424045B42214327E76C
S1134790002E0CD1002B00D1CBE064463900100070
S11347A0774DD7E6764FBB4218D0330075E6002B21
S11347B014D04B07C00818438023C9081B031942AF
S11347C007D0FC081C4204D17907D0080843E1460D
S11347D021004C46420FC9001143C000684DB9E6A0
S11347E01D0000220023C0E6002D5BD10D0005430F
S11347F000D1E2E65D1C00D1B0E0614DAE421FD0B5
S1134800DB43382B71DC1F2B00DD96E020250F00E5
S1134810ED1AAF40B9460700AA46DF404D463D4376
S11348202F005546A840D940451EA8418844074357
S1134830BF18974292415142414435003AE66446DA
S113484035004146100085E60B000343002D00D0DF
S113485063E6002BF5D04346134300D17AE687186C
S11348608742804107224144404209183A400B02E2
S113487000D4D5E6434B01351940C9E5380069E653
S11348801E004746203EF740BC46202B04D040265D
S1134890F31A46469E403243170063467A1E9741F8
S11348A01F4302E6364DAE42CAD080252D045B423A
S11348B02943A6E70843411E8841A6E6002B00D100
S11348C048E6871A4346B842B641CB1A76429E1B45
S11348D033024BD5171A4346BA429241591A5242EF
S11348E0891A072264463A4092E501430F00791E73
S11348F08F419DE71C000F00203CE740202B03D094
S11349004024E31A99400843411E884138437CE619
S11349100022002425E6171A4346BA429241591A46
S11349205242891A6446350043E541461000144D4D
S113493010E680220024120380E61D000F00203DB3
S1134940EF40BC46202B03D04025EB1A9940084386
S113495007006346781E87411F4369E7871897421B
S11349609B4141445B42C9183500A3E53B003343F6
S1134970CED0072231003A4052E600231A00F4E573
S1134980FF070000FFFF7FFFF0B55746DE464E46A7
S11349904546E0B5834607000E03480085B09246BD
S11349A01C00360B400DCD0F002800D19DE0954B27
S11349B0984239D08023F6001B041E43924A7B0F91
S11349C0334399469446030063440093002300262E
S11349D0FF00029323031B0B98466300E40F524627
S11349E05B0D019400D1B3E086498B4200D19EE077
S11349F04246D100802212040A435146490F114312
S1134A008B46814952468C4600996344CB1A002157
S1134A10D20000932B0063409A460F2E00D905E183
S1134A207A4BB6009B599F465B463343994600D068
S1134A30B8E002230826002700900293CAE7CB4679
S1134A403A0002990195019B9A46022927D003292D
S1134A5000D180E2012944D06D49009B8C46634417
S1134A601C00002C38DD530700D013E2D2085B464B
S1134A70DB0109D55946674B19408B468021C90093
S1134A808C46009B63441C00634B9C4207DC5B46E2
S1134A9064055F075B0217431B0B620D02E00023F2
S1134AA00027584A00211B031C0B0B0D1B05234335
S1134AB014055A4A380013401C4353466400DB076C
S1134AC064081C43210005B03CBC90469946A246AC
S1134AD0AB46F0BD0122524201231B1B382B00DCE4
S1134AE0ADE1002200230027DCE75B46334399460F
S1134AF05ED0002E00D18AE13000FEF739FD0300BC
S1134B000B3B1C2B00DD7BE11D22D31A5A4601000E
S1134B10DA4008398E4013005F46334399468F408C
S1134B203F4B00261B1A00930023029352E7414691
S1134B3053460B433B499B468C46009B634400937E
S1134B405B46002B3BD1022300221E43022161E776
S1134B50434613439B4637D04346002B00D162E1C2
S1134B604046FEF705FD03000B3B1C2B00DD53E123
S1134B7002004146083A914088461D21CB1A51460D
S1134B80D9400B0041460B439B46534693401A00C1
S1134B90009B25499C46604403008C466344009373
S1134BA0002137E70323B14600900C26029311E756
S1134BB00023009301330426002702930AE703230A
S1134BC0C3461E43032125E701331E43002201216E
S1134BD020E700239A46802300271B03094A61E744
S1134BE0802349461B03194200D1E2E05946194289
S1134BF000D0DEE00B431B0317001B0BA246014A47
S1134C0050E7C046FF07000001FCFFFFC46400003A
S1134C10FF030000FFFFFFFEFE070000FFFF0F8001
S1134C200DFCFFFF01F8FFFFF3030000D94500D995
S1134C30CBE000D1C6E03C0048460027009B013B86
S1134C4000935B46160E1B021E4313029846330460
S1134C501B0C9946310C0191FEF70CFC4A46424369
S1134C600B04210C050019438A4207D98919013D17
S1134C708E4203D88A4201D9851E8919881A01995E
S1134C80FEF7F8FB09048C464A4621046446424375
S1134C90090C030021438A4204D98919013B8E423D
S1134CA000D8F1E02D041D43AB464346891A424621
S1134CB0280C12041D0C5B46140C22001B041B0C54
S1134CC05A4303946B434443029568431B19150CE0
S1134CD0EB189C4203D980246402A44660441C0C53
S1134CE015041B042D0C20185D19814277D373D051
S1134CF00C1AA24A7D1BAF42BF419446009B7F42DF
S1134D006344E01B1C00864200D1DBE00199FEF7FE
S1134D10B1FB4A4642430B04290C070019438A425B
S1134D2007D98919013F8E4203D88A4201D9871EC7
S1134D308919881A0199FEF79DFB09044A46894698
S1134D4029044D464243090C030029438A4207D9EA
S1134D508919013B8E4203D88A4201D9831E8919DD
S1134D603F04891A3A00039F1A43380013041B0CAA
S1134D70584381460298150C6F43434345434846C4
S1134D80000C8446DB1963449F4203D9802040020F
S1134D908446654448461F0C00041B04000C7D191E
S1134DA01818A94200D284E000D17FE001231A43FD
S1134DB057E680234A461B0313431B031B0BAA46D7
S1134DC06F4A6FE6BA4200D935E74B46DC0758080C
S1134DD07B081C43FF0734E70024AF4289D24744D1
S1134DE04745A4415B466442A4196418013BA642AA
S1134DF01ED2A0426DD800D1B6E0241A9B4678E7B3
S1134E0003005A46283B9A400027914688E65846B4
S1134E10FEF7AEFB203072E603005246283B9A4070
S1134E2093460022B4E65046FEF7A2FB20309AE6F1
S1134E30A642E2D1B845DCD9341A9B4659E71F2B68
S1134E4065DC504C0099A4465C46614408008C40E3
S1134E5011008240D940501E82410C4314435A46EB
S1134E60DA401300620709D00F222240042A05D039
S1134E702200141D9442894149425B181A0262D5EA
S1134E800122002300270DE68A4200D80AE7831E88
S1134E90891907E70F231340042B00D1E6E5171DFA
S1134EA09742924153429B44FA08E0E5002800D11E
S1134EB0D7E57118531EB14227D3A94215D358D050
S1134EC01A0073E7002B00DC04E6012300229B4454
S1134ED0CDE502234744474589415B429C4649420C
S1134EE089190C19E344241A03E743465F00474534
S1134EF09B41B8465B429E19023A8919A94200D0E7
S1134F0054E7404500D051E7ABE51A00F6E71F210E
S1134F105F4649420C1BE740202B07D01A49009BEF
S1134F208C46634418005B4683401A43501E8241FA
S1134F303A4307270023174009D00F2100231140CB
S1134F401400042995D122005F075B021B0BD208D1
S1134F5017430022A6E5802359461B030B431B037A
S1134F6017001B0B064A9DE5BD42B2D89B460024A0
S1134F70BFE68045B9D31A00C3E7C046FF0300006B
S1134F80FF0700001E0400003E040000F0B54F4679
S1134F904646D6468446C0B58046194E18030F03CC
S1134FA04D00000B5C0082463F0B6D0DC90F91460E
S1134FB0640DDB0F0120B5420AD0B44203D0A542F0
S1134FC001D157450CD01CBC90469946A246F0BD71
S1134FD066463E43F7D1AC42F5D154461443F2D170
S1134FE00120C845EFD1994207D0002DEBD163468B
S1134FF01F433800471EB841E5E70020E3E7C046F9
S1135000FF070000F0B54F464646D6464D00C0B5F2
S11350100E03C90F8A462C491F035C008046360BD9
S11350206D0D91463F0B640DDB0F8D421ED08C42FB
S113503016D0002D1ED130438446002C01D13A43B2
S113504023D06246002A1AD09A4529D0514602201C
S11350500139084001381CBC90469946A246F0BD6F
S113506039001143E5D002204042F4E73043FAD13D
S1135070AC420FD0002C0FD13A43E7D00CE0012210
S1135080013B934318000130E5E763460020002B01
S1135090E1D0DBE73A43E6D19A45D7D1A542D5DC46
S11350A0A54205DBBE42D1D808D00020BE42D2D2F0
S11350B050460123013898430130CCE7C845C5D890
S11350C00020C845F4D3C6E7FF070000F0B54F46FB
S11350D04646D6464D00C0B50E03C90F8A462E4932
S11350E01F035C008046360B6D0D91463F0B640D2B
S11350F0DB0F8D4218D08C4211D0002D18D13043D3
S11351008446002C1ED13A431CD163460020002B58
S113511030D0514602200139084001382AE03900D4
S11351201143EAD0022025E03043FBD1AC4226D023
S1135130002C26D13A4324D151460220013908409B
S1135140013817E06246002A0FD09A45E1D1A54202
S113515005DBBE42DDD819D00020BE420AD250463B
S1135160012301389843013004E00122013B9343B9
S1135170180001301CBC90469946A246F0BD3A4343
S1135180D0D19A45C5D1A542C3DCE0E7C845C0D813
S11351900020C845E3D3EDE7FF070000F0B557460C
S11351A0DE464E464546E0B5834606000F034800FA
S11351B087B092461D003F0B400DCC0F002800D154
S11351C06FE0DE4B984238D08023FF001B041F435E
S11351D0730F3B430193DA4B0027994600239B4608
S11351E0F60081442B0369001B0B52469846490D77
S11351F0ED0F002900D185E0D04B994200D173E036
S11352004346DA0080231B0413435246CC48520F12
S113521084461343524600206144D200894421004D
S1135220694000918C46012149448A460F2F00D9D8
S113523090E0C449BF00CF59BF465B463B4301934E
S113524000D06AE102230827002681469B46C9E76D
S113525032005846019B61460091022800D175E056
S1135260032800D1FEE1012800D02CE1002300270F
S1135270002600253F032A0D3F0BB34812053A438D
S113528002401B051343009A5B00D1075B080B43E4
S11352903000190007B03CBC90469946A246AB4684
S11352A0F0BD5B463B43019300D12FE1002F00D1B9
S11352B0A5E13800FEF75CF903000B3B1C2B00DD75
S11352C096E11D22D31A5A460100DA405E46083997
S11352D08F4013008E403B4301939C4B00271B1AC5
S11352E0994600239B467DE7414653460B43934929
S11352F08C46E144002B00D01AE10222022017431D
S113530000228CE7134300D10DE14346002B00D16A
S113531081E14046FEF72CF902000B3A1C2A00DD1D
S113532072E10100434608398B4098461D239A1ABE
S11353305346D3401A004346134352468A404946D3
S1135340081A824989468144002068E77B4B00277C
S113535000268EE7140C1204120C1100370C3604CC
S1135360350C794328008C462E0060436044834604
S113537056432100300C80465846794340440291FC
S1135380844506D98846802149028C46E04441463A
S113539002913604010C360C00048B4681191E0C54
S11353A01B041B0C0391190079438C462800754398
S11353B06544A8465843050C45447743A94203D99C
S11353C0802149028C466744290C8C46390000042C
S11353D0000C2D042D186144AB44059159460491E9
S11353E001990F043F0C080C390051434243904685
S11353F002008C46090C8B4662437C4344445C4463
S1135400A04503D98021490288464244210C88469C
S113541061460904090C8C463900594343437043DF
S11354207E430F0CF6182404BE19644442448C468F
S1135430B34203D980235B0298464044029B6146F1
S11354409846049B370443449B46AB45AD416B42AD
S11354500D0405992D0C8C467F196744FD18A84648
S11354605D462D19A542A44193466442A446C34413
S1135470DC448F42BF4198459B4193459241A445EA
S1135480A4415B427F421F43360C52426442BF191F
S11354902243BF18624638184302D20D03991343BE
S11354A06A020A43501E82416146ED0D2A434E02B0
S11354B03243D90100D4B3E00126500832400243FC
S11354C0DE0732435B08224C5444002C62DD510752
S11354D009D00F201040042805D0101D904292419D
S11354E052429B180200D90104D580241948E400D3
S11354F0034054441848844200DD27E75E075B02FA
S1135500D2081F0B630516435B0DB2E600239946D0
S11355100133042700269B4664E603230197814652
S11355200C279B465EE6012201201743002276E603
S1135530032303201F43434671E6C046FF070000D0
S113554001FCFFFF04650000FFFF0F800DFCFFFF5F
S1135550FF030000FFFFFFFEFE070000002380277B
S113556000933F030026434B83E6019B3200A4468D
S1135570584670E6AC466EE6802701993F033942EF
S11355802DD03B422BD11F433F033F0B0095160008
S1135590384B6EE601252D1B382D00DD66E61F2DE8
S11355A040DC35481C005044160082408440EE40E4
S11355B0501E824134431443EB40620709D00F224A
S11355C02240042A05D02200141D94428041404206
S11355D01B181A023ED501230027002649E680271E
S11355E0019B3F031F433F033F0B0094214B40E6C5
S11355F003005A46283B9A40002601926DE658461D
S1135600FDF7B6FF203057E603005246283B9A4088
S11356101300002293E65046FDF7AAFF20307BE6F4
S1135620CA4650E71F201E004042041BE640202DBE
S113563003D0124C5444A3401A43501E82413243B7
S113564007260027164009D00F200023104014001D
S11356500428B9D122005E075B021F0BD20816434F
S1135660002306E680273F031F433F033F0B16003A
S1135670004BFEE5FF0700001E0400003E0400008E
S1135680F8B557464E464546DE460C000903E0B5DC
S1135690490A460F5F0031431E03DB0F760A9B461F
S11356A0530F3343C84E6500C000E40FD2006D0DA4
S11356B0A24681467F0D9C469046B74200D1B9E090
S11356C05B46012673409B46EE1BA34500D183E055
S11356D0002E63DD002F00D0B1E06346134300D1F8
S11356E023E1731E002B00D0BAE1861A6346B04250
S11356F080410125C91A4042091A0B0200D447E12E
S113570049024B0A98464346002B00D189E14046A2
S1135710FDF72EFF0300083B1F2B00DD7CE1202258
S11357203000D21A4146D040994002009E400A43BC
S11357309D4200DD6AE15D1B6B1C1F2B00DD94E1C3
S1135740202110003500C91A8E40DA408840DD401F
S1135750711E8E4111000722284300250643324062
S1135760002A09D00F233340042B05D0331DB34244
S1135770B641764289191E000B0200D43DE26A1C30
S1135780914B55056D0D9A4200D119E18F4AF608E7
S11357900A40570752023743120B9BE0002E00D0F9
S11357A0C5E06E1C7605760D012E00DC48E16746E7
S11357B0861ACB1BB042BF417F42B8461F00434606
S11357C0FF1A3B00B8461B0200D55FE137439AD16C
S11357D000220024002579E0002E00DCFAE0002FEE
S11357E000D18DE0784B9D4267D0802367461B042F
S11357F01F43BC46382E00DC52E1634613435A1E55
S113580093411E1886428041404209180B0200D47D
S1135810BEE06D4B01359D4200D1D2E06B4A730866
S11358200A4001210E401E435108D30707221E439C
S1135830324095E71E00164300D045E740E7624B2F
S11358409D423AD0802367461B041F43BC46382E32
S113585000DDEBE01F2E00DC3AE133006746203B1D
S1135860DF403B00202E05D04027BF1B6646BE40CC
S1135870324390464646721E96413343DAE0002B8B
S113588000D114E26346134300D168E180234E073C
S1135890C008C9081B030643194208D06046C00863
S11358A0184204D163460100D2085E071643F30090
S11358B09946C900720F444D11434B46DE08424BD2
S11358C04F073743CA089D4200D16EE012036D05AD
S11358D0120B6D0D00211203130B0A0D12051A434E
S11358E03B4B2D0513402B435B00E4075B0823432C
S11358F0380019003CBC90469946A246AB46F8BD18
S11359006346134311D0731E002B00D007E18618A1
S11359108642804161444042091801250B0237D573
S113592002257BE73E00614691463500C5E75C46AB
S1135930002D00D0E1E00B000343F3D0731C00D131
S1135940ACE1214B9F4200D13AE1F343382B00DD17
S11359506FE11F2B00DD8CE120250E00ED1AAE4017
S1135960B0460600AA46DE40454635432E0055465D
S1135970D940A8406346451EA8415B1A9C46304363
S1135980161AB242924163465242991A3D00B4E655
S113599007223240002A00D0E4E60B4BF6084F07FA
S11359A03743CA089D4200D090E73B00134300D11F
S11359B0A6E180231B031A431203120B024D89E74D
S11359C015000022002785E7FF070000FFFF7FFF87
S11359D0FFFF0F80002E00D0C7E06B1C5E05760D24
S11359E0012E00DCF0E0C84DAB4200D1B9E08518CF
S11359F00A00854289416244494251180722CE0770
S1135A006D082E43490832401D00A9E6BF49ED1A2E
S1135A10114007223240A3E6320028388240002693
S1135A2086E63000FDF7A4FD203073E66346134399
S1135A305A1E9341C61AB04280414042091A5CE69C
S1135A400E00674606431743002D5ED1002E00D09A
S1135A50F3E0002F00D11EE15C46614691462CE73D
S1135A60A94FBE427BD01E00F1E610001F3DE84066
S1135A70202B03D04021CB1A9A401643731E9E411B
S1135A800722064332400021002583E7161A6346A5
S1135A90B2428041591A40420B1A98465C4632E69B
S1135AA01F2E00DDABE02027BB1B9A4663465746FA
S1135AB0BB40994613004F46F3401F433B005746F3
S1135AC0BA40571EBA4113436246F240891898E619
S1135AD02027BB1B9A4663465746BB409946130092
S1135AE04F46F3401F433B005746BA40571EBA4146
S1135AF013436246F240891A9CE7834B9F425FD06E
S1135B0080252D047342294320E7002E0CD1002F59
S1135B1000D1D0E05C46614691467B4DCDE67A4F9C
S1135B20BE421CD01E0065E6002F18D0C0084E07E8
S1135B3006438020C9080003014208D06346DC08FC
S1135B40044204D12100DA46D2085E071643F3006A
S1135B50994601245346C900720F11431C406A4DF3
S1135B60ABE61D0000220027B4E6002D59D10B003E
S1135B70034300D1D6E6731C00D1B2E0624B9F42CE
S1135B801ED0F343382B6FDC1F2B00DD97E020255C
S1135B900E00ED1AAE40B0460600AA46DE40454669
S1135BA035432E005546A840D940451EA8418C4493
S1135BB00643B61896429241514261443D0025E69F
S1135BC03D006146914678E60B000343002D00D06A
S1135BD055E6002BF5D06346134300D16DE68618D5
S1135BE08642804161444042091800220B0200D4DD
S1135BF0D0E6464B01351940B2E5B1465DE63300C7
S1135C006746203BDF403B00202E05D04027BF1BCA
S1135C106646BE40324390464646721E9641334322
S1135C20EFE5394B9F42CBD080252D0473422943A5
S1135C30A8E70843411E8841A2E6002F00D13CE6B4
S1135C406346861ACF1AB0429B415B42FB1A9846C0
S1135C501B024ED5161A6346B2429241591A524259
S1135C60891A5C4600227BE501430E00711E8E41B9
S1135C709FE71D000E00203DEE40B046202B04D0CF
S1135C804025EB1A99400843814648464346411E45
S1135C908841184374E60022002417E6161A634666
S1135CA0B2429241591A5242891A3D0025E5614691
S1135CB09146154D01E680220024120379E61D0069
S1135CC00E00203DEE40B046202B04D04025EB1AB8
S1135CD09940084381464E464346711E8E411E43F9
S1135CE067E7861896429B4161445B42C9183D00B0
